{
  "contractName": "MintableRefundableSale",
  "abi": [
    {
      "constant": true,
      "inputs": [],
      "name": "rate",
      "outputs": [
        {
          "name": "",
          "type": "uint256"
        }
      ],
      "payable": false,
      "stateMutability": "view",
      "type": "function"
    },
    {
      "constant": true,
      "inputs": [],
      "name": "cap",
      "outputs": [
        {
          "name": "",
          "type": "uint256"
        }
      ],
      "payable": false,
      "stateMutability": "view",
      "type": "function"
    },
    {
      "constant": true,
      "inputs": [],
      "name": "weiRaised",
      "outputs": [
        {
          "name": "",
          "type": "uint256"
        }
      ],
      "payable": false,
      "stateMutability": "view",
      "type": "function"
    },
    {
      "constant": true,
      "inputs": [],
      "name": "capReached",
      "outputs": [
        {
          "name": "",
          "type": "bool"
        }
      ],
      "payable": false,
      "stateMutability": "view",
      "type": "function"
    },
    {
      "constant": true,
      "inputs": [],
      "name": "wallet",
      "outputs": [
        {
          "name": "",
          "type": "address"
        }
      ],
      "payable": false,
      "stateMutability": "view",
      "type": "function"
    },
    {
      "constant": false,
      "inputs": [
        {
          "name": "beneficiary",
          "type": "address"
        }
      ],
      "name": "buyTokens",
      "outputs": [],
      "payable": true,
      "stateMutability": "payable",
      "type": "function"
    },
    {
      "constant": true,
      "inputs": [],
      "name": "token",
      "outputs": [
        {
          "name": "",
          "type": "address"
        }
      ],
      "payable": false,
      "stateMutability": "view",
      "type": "function"
    },
    {
      "inputs": [
        {
          "name": "openingTime",
          "type": "uint256"
        },
        {
          "name": "closingTime",
          "type": "uint256"
        },
        {
          "name": "rate",
          "type": "uint256"
        },
        {
          "name": "wallet",
          "type": "address"
        },
        {
          "name": "cap",
          "type": "uint256"
        },
        {
          "name": "token",
          "type": "address"
        },
        {
          "name": "goal",
          "type": "uint256"
        }
      ],
      "payable": false,
      "stateMutability": "nonpayable",
      "type": "constructor"
    },
    {
      "payable": true,
      "stateMutability": "payable",
      "type": "fallback"
    },
    {
      "anonymous": false,
      "inputs": [
        {
          "indexed": true,
          "name": "purchaser",
          "type": "address"
        },
        {
          "indexed": true,
          "name": "beneficiary",
          "type": "address"
        },
        {
          "indexed": false,
          "name": "value",
          "type": "uint256"
        },
        {
          "indexed": false,
          "name": "amount",
          "type": "uint256"
        }
      ],
      "name": "TokensPurchased",
      "type": "event"
    }
  ],
  "bytecode": "0x608060405234801561001057600080fd5b5060405160e080610a05833981018060405260e081101561003057600080fd5b508051602082015160408301516060840151608085015160a086015160c090960151600160009081559596949593949293919291839086908690859083116100d957604080517f08c379a000000000000000000000000000000000000000000000000000000000815260206004820152601460248201527f43726f776473616c653a20726174652069732030000000000000000000000000604482015290519081900360640190fd5b600160a060020a038216151561017657604080517f08c379a000000000000000000000000000000000000000000000000000000000815260206004820152602560248201527f43726f776473616c653a2077616c6c657420697320746865207a65726f20616460448201527f6472657373000000000000000000000000000000000000000000000000000000606482015290519081900360840190fd5b600160a060020a038116151561021257604080517f08c379a0000000000000000000000000000000000000000000000000000000008152602060048201526024808201527f43726f776473616c653a20746f6b656e20697320746865207a65726f2061646460448201527f7265737300000000000000000000000000000000000000000000000000000000606482015290519081900360840190fd5b60039290925560028054600160a060020a03928316600160a060020a03199182161790915560018054929093169116179055600081116102b357604080517f08c379a000000000000000000000000000000000000000000000000000000000815260206004820152601960248201527f43617070656443726f776473616c653a20636170206973203000000000000000604482015290519081900360640190fd5b6005558281111561034b57604080517f08c379a000000000000000000000000000000000000000000000000000000000815260206004820152602960248201527f53616d706c6543726f776453616c653a20676f616c206973206772656174657260448201527f207468616e206361700000000000000000000000000000000000000000000000606482015290519081900360840190fd5b505050505050506106a4806103616000396000f3fe60806040526004361061007c577c010000000000000000000000000000000000000000000000000000000060003504632c4e722e8114610087578063355274ea146100ae5780634042b66f146100c35780634f935945146100d8578063521eb27314610101578063ec8ac4d814610132578063fc0c546a14610158575b6100853361016d565b005b34801561009357600080fd5b5061009c610274565b60408051918252519081900360200190f35b3480156100ba57600080fd5b5061009c61027a565b3480156100cf57600080fd5b5061009c610280565b3480156100e457600080fd5b506100ed610286565b604080519115158252519081900360200190f35b34801561010d57600080fd5b5061011661029a565b60408051600160a060020a039092168252519081900360200190f35b6100856004803603602081101561014857600080fd5b5035600160a060020a031661016d565b34801561016457600080fd5b506101166102a9565b60008054600101908190553461018383826102b8565b600061018e82610333565b6004549091506101a4908363ffffffff61035016565b6004556101b184826103b4565b60408051838152602081018390528151600160a060020a0387169233927f6faf93231a456e552dbc9961f58d9713ee4f2e69d15f1975b050ef0911053a7b929081900390910190a36102038483610270565b61020b6103be565b6102158483610270565b50506000548114610270576040805160e560020a62461bcd02815260206004820152601f60248201527f5265656e7472616e637947756172643a207265656e7472616e742063616c6c00604482015290519081900360640190fd5b5050565b60035490565b60055490565b60045490565b6000600554610293610280565b1015905090565b600254600160a060020a031690565b600154600160a060020a031690565b6102c282826103fa565b6005546102dd826102d1610280565b9063ffffffff61035016565b1115610270576040805160e560020a62461bcd02815260206004820152601d60248201527f43617070656443726f776473616c653a20636170206578636565646564000000604482015290519081900360640190fd5b600061034a600354836104d790919063ffffffff16565b92915050565b6000828201838110156103ad576040805160e560020a62461bcd02815260206004820152601b60248201527f536166654d6174683a206164646974696f6e206f766572666c6f770000000000604482015290519081900360640190fd5b9392505050565b6102708282610573565b600254604051600160a060020a03909116903480156108fc02916000818181858888f193505050501580156103f7573d6000803e3d6000fd5b50565b600160a060020a0382161515610480576040805160e560020a62461bcd02815260206004820152602a60248201527f43726f776473616c653a2062656e656669636961727920697320746865207a6560448201527f726f206164647265737300000000000000000000000000000000000000000000606482015290519081900360840190fd5b801515610270576040805160e560020a62461bcd02815260206004820152601960248201527f43726f776473616c653a20776569416d6f756e74206973203000000000000000604482015290519081900360640190fd5b60008215156104e85750600061034a565b8282028284828115156104f757fe5b04146103ad576040805160e560020a62461bcd02815260206004820152602160248201527f536166654d6174683a206d756c7469706c69636174696f6e206f766572666c6f60448201527f7700000000000000000000000000000000000000000000000000000000000000606482015290519081900360840190fd5b61057b6102a9565b600160a060020a03166340c10f1983836040518363ffffffff167c01000000000000000000000000000000000000000000000000000000000281526004018083600160a060020a0316600160a060020a0316815260200182815260200192505050602060405180830381600087803b1580156105f657600080fd5b505af115801561060a573d6000803e3d6000fd5b505050506040513d602081101561062057600080fd5b50511515610270576040805160e560020a62461bcd02815260206004820152601f60248201527f4d696e74656443726f776473616c653a206d696e74696e67206661696c656400604482015290519081900360640190fdfea165627a7a72305820bc9b054a8c827d58831b2bd4558db19b4a186b8332f7bb8e1875b311e6c2292e0029",
  "source": "pragma solidity ^0.5.0;\n\nimport \"../../3rdparty/openzeppelin-solidity/contracts/crowdsale/validation/CappedCrowdsale.sol\";\nimport \"../../3rdparty/openzeppelin-solidity/contracts/crowdsale/distribution/RefundableCrowdsale.sol\";\nimport \"../../3rdparty/openzeppelin-solidity/contracts/crowdsale/emission/MintedCrowdsale.sol\";\nimport \"../../3rdparty/openzeppelin-solidity/contracts/token/ERC20/ERC20Mintable.sol\";\nimport \"../../3rdparty/openzeppelin-solidity/contracts/token/ERC20/ERC20Detailed.sol\";\n\n/**\n * @title SampleCrowdsaleToken\n * @dev Very simple ERC20 Token that can be minted.\n * It is meant to be used in a crowdsale contract.\n */\ncontract SampleCrowdsaleToken is ERC20Mintable, ERC20Detailed {\n    constructor () public ERC20Detailed(\"Sample Crowdsale Token\", \"SCT\", 18) {\n        // solhint-disable-previous-line no-empty-blocks\n    }\n}\n\n/**\n * @title SampleCrowdsale\n * @dev This is an example of a fully fledged crowdsale.\n * The way to add new features to a base crowdsale is by multiple inheritance.\n * In this example we are providing following extensions:\n * CappedCrowdsale - sets a max boundary for raised funds\n * RefundableCrowdsale - set a min goal to be reached and returns funds if it's not met\n * MintedCrowdsale - assumes the token can be minted by the crowdsale, which does so\n * when receiving purchases.\n *\n * After adding multiple features it's good practice to run integration tests\n * to ensure that subcontracts works together as intended.\n */\ncontract MintableRefundableSale is CappedCrowdsale, MintedCrowdsale {\n    constructor (\n        uint256 openingTime,\n        uint256 closingTime,\n        uint256 rate,\n        address payable wallet,\n        uint256 cap,\n        ERC20Mintable token,\n        uint256 goal\n    )\n        public\n        Crowdsale(rate, wallet, token)\n        CappedCrowdsale(cap)\n    {\n        //As goal needs to be met for a successful crowdsale\n        //the value needs to less or equal than a cap which is limit for accepted funds\n        require(goal <= cap, \"SampleCrowdSale: goal is greater than cap\");\n    }\n}",
  "sourcePath": "/home/delerex/DelerexGit/Hedera/hederalaunch/contracts/MintableRefundableSale.sol",
  "compiler": {
    "name": "solc",
    "version": "0.5.1+commit.c8a2cb62.Emscripten.clang"
  },
  "schemaVersion": "3.0.9",
  "updatedAt": "2019-07-11T14:52:11.907Z",
  "devdoc": {
    "details": "This is an example of a fully fledged crowdsale. The way to add new features to a base crowdsale is by multiple inheritance. In this example we are providing following extensions: CappedCrowdsale - sets a max boundary for raised funds RefundableCrowdsale - set a min goal to be reached and returns funds if it's not met MintedCrowdsale - assumes the token can be minted by the crowdsale, which does so when receiving purchases. * After adding multiple features it's good practice to run integration tests to ensure that subcontracts works together as intended.",
    "methods": {
      "buyTokens(address)": {
        "details": "low level token purchase ***DO NOT OVERRIDE*** This function has a non-reentrancy guard, so it shouldn't be called by another `nonReentrant` function.",
        "params": {
          "beneficiary": "Recipient of the token purchase"
        }
      },
      "cap()": {
        "return": "the cap of the crowdsale."
      },
      "capReached()": {
        "details": "Checks whether the cap has been reached.",
        "return": "Whether the cap was reached"
      },
      "rate()": {
        "return": "the number of token units a buyer gets per wei."
      },
      "token()": {
        "return": "the token being sold."
      },
      "wallet()": {
        "return": "the address where funds are collected."
      },
      "weiRaised()": {
        "return": "the amount of wei raised."
      }
    },
    "title": "SampleCrowdsale"
  },
  "userdoc": {
    "methods": {}
  }
}