{
  "contractName": "StatefulContract",
  "abi": [
    {
      "inputs": [
        {
          "name": "message_",
          "type": "string"
        }
      ],
      "payable": false,
      "stateMutability": "nonpayable",
      "type": "constructor"
    },
    {
      "constant": false,
      "inputs": [
        {
          "name": "message_",
          "type": "string"
        }
      ],
      "name": "set_message",
      "outputs": [],
      "payable": false,
      "stateMutability": "nonpayable",
      "type": "function"
    },
    {
      "constant": true,
      "inputs": [],
      "name": "get_message",
      "outputs": [
        {
          "name": "",
          "type": "string"
        }
      ],
      "payable": false,
      "stateMutability": "view",
      "type": "function"
    },
    {
      "constant": false,
      "inputs": [],
      "name": "kill",
      "outputs": [],
      "payable": false,
      "stateMutability": "nonpayable",
      "type": "function"
    }
  ],
  "bytecode": "0x608060405234801561001057600080fd5b506040516104b93803806104b98339810180604052602081101561003357600080fd5b81019080805164010000000081111561004b57600080fd5b8201602081018481111561005e57600080fd5b815164010000000081118282018710171561007857600080fd5b505060008054600160a060020a0319163317905580519093506100a492506001915060208401906100ab565b5050610146565b828054600181600116156101000203166002900490600052602060002090601f016020900481019282601f106100ec57805160ff1916838001178555610119565b82800160010185558215610119579182015b828111156101195782518255916020019190600101906100fe565b50610125929150610129565b5090565b61014391905b80821115610125576000815560010161012f565b90565b610364806101556000396000f3fe608060405260043610610050577c010000000000000000000000000000000000000000000000000000000060003504632e982602811461005557806332af2edb1461010a57806341c0e1b514610194575b600080fd5b34801561006157600080fd5b506101086004803603602081101561007857600080fd5b81019060208101813564010000000081111561009357600080fd5b8201836020820111156100a557600080fd5b803590602001918460018302840111640100000000831117156100c757600080fd5b91908080601f0160208091040260200160405190810160405280939291908181526020018383808284376000920191909152509295506101a9945050505050565b005b34801561011657600080fd5b5061011f6101e5565b6040805160208082528351818301528351919283929083019185019080838360005b83811015610159578181015183820152602001610141565b50505050905090810190601f1680156101865780820380516001836020036101000a031916815260200191505b509250505060405180910390f35b3480156101a057600080fd5b5061010861027b565b60005473ffffffffffffffffffffffffffffffffffffffff1633146101cd576101e2565b80516101e09060019060208401906102a0565b505b50565b60018054604080516020601f600260001961010087891615020190951694909404938401819004810282018101909252828152606093909290918301828280156102705780601f1061024557610100808354040283529160200191610270565b820191906000526020600020905b81548152906001019060200180831161025357829003601f168201915b505050505090505b90565b60005473ffffffffffffffffffffffffffffffffffffffff1633141561029e5733ff5b565b828054600181600116156101000203166002900490600052602060002090601f016020900481019282601f106102e157805160ff191683800117855561030e565b8280016001018555821561030e579182015b8281111561030e5782518255916020019190600101906102f3565b5061031a92915061031e565b5090565b61027891905b8082111561031a576000815560010161032456fea165627a7a72305820a1f3d1b13adf3cf690d08da20a4b43d8cbdc9b8e8c72f770178601e8ce2e85980029",
  "source": "pragma solidity >=0.4.22 <0.6.0;\n\ncontract StatefulContract {\n    // the contract's owner, set in the constructor\n    address owner;\n\n    // the message we're storing\n    string message;\n\n    constructor(string memory message_) public {\n        // set the owner of the contract for `kill()`\n        owner = msg.sender;\n        message = message_;\n    }\n\n    function set_message(string memory message_) public {\n        // only allow the owner to update the message\n        if (msg.sender != owner) return;\n        message = message_;\n    }\n\n    // return a string\n    function get_message() public view returns (string memory) {\n        return message;\n    }\n\n    // recover the funds of the contract\n    function kill() public { if (msg.sender == owner) selfdestruct(msg.sender); }\n}",
  "sourcePath": "/home/delerex/DelerexGit/Hedera/hederalaunch/contracts/StatefulContract.sol",
  "compiler": {
    "name": "solc",
    "version": "0.5.1+commit.c8a2cb62.Emscripten.clang"
  },
  "schemaVersion": "3.0.9",
  "updatedAt": "2019-07-11T14:52:11.908Z",
  "devdoc": {
    "methods": {}
  },
  "userdoc": {
    "methods": {}
  }
}