{
  "contractName": "TokenReceiver",
  "abi": [
    {
      "constant": true,
      "inputs": [
        {
          "name": "account",
          "type": "address"
        }
      ],
      "name": "balanceOf",
      "outputs": [
        {
          "name": "",
          "type": "uint256"
        }
      ],
      "payable": false,
      "stateMutability": "view",
      "type": "function"
    },
    {
      "constant": false,
      "inputs": [
        {
          "name": "from",
          "type": "address"
        },
        {
          "name": "value",
          "type": "uint256"
        }
      ],
      "name": "tokenFallback",
      "outputs": [
        {
          "name": "",
          "type": "bool"
        }
      ],
      "payable": false,
      "stateMutability": "nonpayable",
      "type": "function"
    }
  ],
  "bytecode": "0x608060405234801561001057600080fd5b5061017d806100206000396000f3fe608060405260043610610045577c010000000000000000000000000000000000000000000000000000000060003504633b66d02b811461004a57806370a08231146100a4575b600080fd5b34801561005657600080fd5b506100906004803603604081101561006d57600080fd5b5073ffffffffffffffffffffffffffffffffffffffff81351690602001356100f6565b604080519115158252519081900360200190f35b3480156100b057600080fd5b506100e4600480360360208110156100c757600080fd5b503573ffffffffffffffffffffffffffffffffffffffff16610129565b60408051918252519081900360200190f35b73ffffffffffffffffffffffffffffffffffffffff82166000908152602081905260409020805482019055600192915050565b73ffffffffffffffffffffffffffffffffffffffff166000908152602081905260409020549056fea165627a7a7230582082fde39843b0175b6f57a65c4e419f1e61fe1175262cf903d39daf71d892e0360029",
  "source": "pragma solidity ^0.5.0;\n\ncontract TokenReceiver{\n    mapping (address=>uint256) _balance;\n\n    function balanceOf(address account) public view returns (uint256){\n        return _balance[account];\n    }\n\n    function tokenFallback( address from, uint256 value ) public returns(bool){\n        _balance[from] = _balance[from] + value;\n        return true;\n    }\n}",
  "sourcePath": "/home/delerex/DelerexGit/Hedera/hederalaunch/contracts/TokenReceiver.sol",
  "compiler": {
    "name": "solc",
    "version": "0.5.1+commit.c8a2cb62.Emscripten.clang"
  },
  "schemaVersion": "3.0.9",
  "updatedAt": "2019-07-11T14:52:11.912Z",
  "devdoc": {
    "methods": {}
  },
  "userdoc": {
    "methods": {}
  }
}