{
  "contractName": "TokenMintable",
  "abi": [
    {
      "constant": true,
      "inputs": [],
      "name": "name",
      "outputs": [
        {
          "name": "",
          "type": "string"
        }
      ],
      "payable": false,
      "stateMutability": "view",
      "type": "function"
    },
    {
      "constant": false,
      "inputs": [
        {
          "name": "spender",
          "type": "address"
        },
        {
          "name": "value",
          "type": "uint256"
        }
      ],
      "name": "approve",
      "outputs": [
        {
          "name": "",
          "type": "bool"
        }
      ],
      "payable": false,
      "stateMutability": "nonpayable",
      "type": "function"
    },
    {
      "constant": true,
      "inputs": [],
      "name": "totalSupply",
      "outputs": [
        {
          "name": "",
          "type": "uint256"
        }
      ],
      "payable": false,
      "stateMutability": "view",
      "type": "function"
    },
    {
      "constant": true,
      "inputs": [],
      "name": "decimals",
      "outputs": [
        {
          "name": "",
          "type": "uint8"
        }
      ],
      "payable": false,
      "stateMutability": "view",
      "type": "function"
    },
    {
      "constant": false,
      "inputs": [
        {
          "name": "spender",
          "type": "address"
        },
        {
          "name": "addedValue",
          "type": "uint256"
        }
      ],
      "name": "increaseAllowance",
      "outputs": [
        {
          "name": "",
          "type": "bool"
        }
      ],
      "payable": false,
      "stateMutability": "nonpayable",
      "type": "function"
    },
    {
      "constant": false,
      "inputs": [],
      "name": "unpause",
      "outputs": [],
      "payable": false,
      "stateMutability": "nonpayable",
      "type": "function"
    },
    {
      "constant": false,
      "inputs": [
        {
          "name": "amount",
          "type": "uint256"
        }
      ],
      "name": "burn",
      "outputs": [],
      "payable": false,
      "stateMutability": "nonpayable",
      "type": "function"
    },
    {
      "constant": true,
      "inputs": [
        {
          "name": "account",
          "type": "address"
        }
      ],
      "name": "isPauser",
      "outputs": [
        {
          "name": "",
          "type": "bool"
        }
      ],
      "payable": false,
      "stateMutability": "view",
      "type": "function"
    },
    {
      "constant": true,
      "inputs": [],
      "name": "paused",
      "outputs": [
        {
          "name": "",
          "type": "bool"
        }
      ],
      "payable": false,
      "stateMutability": "view",
      "type": "function"
    },
    {
      "constant": false,
      "inputs": [],
      "name": "renouncePauser",
      "outputs": [],
      "payable": false,
      "stateMutability": "nonpayable",
      "type": "function"
    },
    {
      "constant": true,
      "inputs": [
        {
          "name": "account",
          "type": "address"
        }
      ],
      "name": "balanceOf",
      "outputs": [
        {
          "name": "",
          "type": "uint256"
        }
      ],
      "payable": false,
      "stateMutability": "view",
      "type": "function"
    },
    {
      "constant": false,
      "inputs": [],
      "name": "renounceOwnership",
      "outputs": [],
      "payable": false,
      "stateMutability": "nonpayable",
      "type": "function"
    },
    {
      "constant": false,
      "inputs": [
        {
          "name": "account",
          "type": "address"
        },
        {
          "name": "amount",
          "type": "uint256"
        }
      ],
      "name": "burnFrom",
      "outputs": [],
      "payable": false,
      "stateMutability": "nonpayable",
      "type": "function"
    },
    {
      "constant": false,
      "inputs": [
        {
          "name": "account",
          "type": "address"
        }
      ],
      "name": "addPauser",
      "outputs": [],
      "payable": false,
      "stateMutability": "nonpayable",
      "type": "function"
    },
    {
      "constant": false,
      "inputs": [],
      "name": "pause",
      "outputs": [],
      "payable": false,
      "stateMutability": "nonpayable",
      "type": "function"
    },
    {
      "constant": true,
      "inputs": [],
      "name": "owner",
      "outputs": [
        {
          "name": "",
          "type": "address"
        }
      ],
      "payable": false,
      "stateMutability": "view",
      "type": "function"
    },
    {
      "constant": true,
      "inputs": [],
      "name": "isOwner",
      "outputs": [
        {
          "name": "",
          "type": "bool"
        }
      ],
      "payable": false,
      "stateMutability": "view",
      "type": "function"
    },
    {
      "constant": true,
      "inputs": [],
      "name": "symbol",
      "outputs": [
        {
          "name": "",
          "type": "string"
        }
      ],
      "payable": false,
      "stateMutability": "view",
      "type": "function"
    },
    {
      "constant": false,
      "inputs": [
        {
          "name": "account",
          "type": "address"
        }
      ],
      "name": "addMinter",
      "outputs": [],
      "payable": false,
      "stateMutability": "nonpayable",
      "type": "function"
    },
    {
      "constant": false,
      "inputs": [],
      "name": "renounceMinter",
      "outputs": [],
      "payable": false,
      "stateMutability": "nonpayable",
      "type": "function"
    },
    {
      "constant": false,
      "inputs": [
        {
          "name": "spender",
          "type": "address"
        },
        {
          "name": "subtractedValue",
          "type": "uint256"
        }
      ],
      "name": "decreaseAllowance",
      "outputs": [
        {
          "name": "",
          "type": "bool"
        }
      ],
      "payable": false,
      "stateMutability": "nonpayable",
      "type": "function"
    },
    {
      "constant": true,
      "inputs": [
        {
          "name": "account",
          "type": "address"
        }
      ],
      "name": "isMinter",
      "outputs": [
        {
          "name": "",
          "type": "bool"
        }
      ],
      "payable": false,
      "stateMutability": "view",
      "type": "function"
    },
    {
      "constant": true,
      "inputs": [
        {
          "name": "owner",
          "type": "address"
        },
        {
          "name": "spender",
          "type": "address"
        }
      ],
      "name": "allowance",
      "outputs": [
        {
          "name": "",
          "type": "uint256"
        }
      ],
      "payable": false,
      "stateMutability": "view",
      "type": "function"
    },
    {
      "constant": false,
      "inputs": [
        {
          "name": "newOwner",
          "type": "address"
        }
      ],
      "name": "transferOwnership",
      "outputs": [],
      "payable": false,
      "stateMutability": "nonpayable",
      "type": "function"
    },
    {
      "inputs": [],
      "payable": false,
      "stateMutability": "nonpayable",
      "type": "constructor"
    },
    {
      "anonymous": false,
      "inputs": [
        {
          "indexed": true,
          "name": "previousOwner",
          "type": "address"
        },
        {
          "indexed": true,
          "name": "newOwner",
          "type": "address"
        }
      ],
      "name": "OwnershipTransferred",
      "type": "event"
    },
    {
      "anonymous": false,
      "inputs": [
        {
          "indexed": true,
          "name": "account",
          "type": "address"
        }
      ],
      "name": "MinterAdded",
      "type": "event"
    },
    {
      "anonymous": false,
      "inputs": [
        {
          "indexed": true,
          "name": "account",
          "type": "address"
        }
      ],
      "name": "MinterRemoved",
      "type": "event"
    },
    {
      "anonymous": false,
      "inputs": [
        {
          "indexed": false,
          "name": "account",
          "type": "address"
        }
      ],
      "name": "Paused",
      "type": "event"
    },
    {
      "anonymous": false,
      "inputs": [
        {
          "indexed": false,
          "name": "account",
          "type": "address"
        }
      ],
      "name": "Unpaused",
      "type": "event"
    },
    {
      "anonymous": false,
      "inputs": [
        {
          "indexed": true,
          "name": "account",
          "type": "address"
        }
      ],
      "name": "PauserAdded",
      "type": "event"
    },
    {
      "anonymous": false,
      "inputs": [
        {
          "indexed": true,
          "name": "account",
          "type": "address"
        }
      ],
      "name": "PauserRemoved",
      "type": "event"
    },
    {
      "anonymous": false,
      "inputs": [
        {
          "indexed": true,
          "name": "from",
          "type": "address"
        },
        {
          "indexed": true,
          "name": "to",
          "type": "address"
        },
        {
          "indexed": false,
          "name": "value",
          "type": "uint256"
        }
      ],
      "name": "Transfer",
      "type": "event"
    },
    {
      "anonymous": false,
      "inputs": [
        {
          "indexed": true,
          "name": "owner",
          "type": "address"
        },
        {
          "indexed": true,
          "name": "spender",
          "type": "address"
        },
        {
          "indexed": false,
          "name": "value",
          "type": "uint256"
        }
      ],
      "name": "Approval",
      "type": "event"
    },
    {
      "constant": true,
      "inputs": [],
      "name": "mintLimit",
      "outputs": [
        {
          "name": "",
          "type": "uint256"
        }
      ],
      "payable": false,
      "stateMutability": "view",
      "type": "function"
    },
    {
      "constant": false,
      "inputs": [
        {
          "name": "_to",
          "type": "address"
        }
      ],
      "name": "reclaimHederaBars",
      "outputs": [
        {
          "name": "",
          "type": "bool"
        }
      ],
      "payable": false,
      "stateMutability": "nonpayable",
      "type": "function"
    },
    {
      "constant": false,
      "inputs": [
        {
          "name": "token",
          "type": "address"
        },
        {
          "name": "_to",
          "type": "address"
        }
      ],
      "name": "reclaimToken",
      "outputs": [
        {
          "name": "",
          "type": "bool"
        }
      ],
      "payable": false,
      "stateMutability": "nonpayable",
      "type": "function"
    },
    {
      "constant": false,
      "inputs": [
        {
          "name": "trusted",
          "type": "address"
        },
        {
          "name": "is_trusted",
          "type": "bool"
        }
      ],
      "name": "setTrustedAddress",
      "outputs": [
        {
          "name": "",
          "type": "bool"
        }
      ],
      "payable": false,
      "stateMutability": "nonpayable",
      "type": "function"
    },
    {
      "constant": false,
      "inputs": [
        {
          "name": "recipient",
          "type": "address"
        },
        {
          "name": "amount",
          "type": "uint256"
        }
      ],
      "name": "transfer",
      "outputs": [
        {
          "name": "",
          "type": "bool"
        }
      ],
      "payable": false,
      "stateMutability": "nonpayable",
      "type": "function"
    },
    {
      "constant": false,
      "inputs": [
        {
          "name": "sender",
          "type": "address"
        },
        {
          "name": "recipient",
          "type": "address"
        },
        {
          "name": "amount",
          "type": "uint256"
        }
      ],
      "name": "transferFrom",
      "outputs": [
        {
          "name": "",
          "type": "bool"
        }
      ],
      "payable": false,
      "stateMutability": "nonpayable",
      "type": "function"
    },
    {
      "constant": false,
      "inputs": [
        {
          "name": "recipients",
          "type": "address[]"
        },
        {
          "name": "amounts",
          "type": "uint256[]"
        }
      ],
      "name": "bulkTransfer",
      "outputs": [
        {
          "name": "",
          "type": "bool"
        }
      ],
      "payable": false,
      "stateMutability": "nonpayable",
      "type": "function"
    },
    {
      "constant": false,
      "inputs": [
        {
          "name": "account",
          "type": "address"
        },
        {
          "name": "amount",
          "type": "uint256"
        }
      ],
      "name": "mint",
      "outputs": [
        {
          "name": "",
          "type": "bool"
        }
      ],
      "payable": false,
      "stateMutability": "nonpayable",
      "type": "function"
    },
    {
      "constant": false,
      "inputs": [
        {
          "name": "account",
          "type": "address"
        }
      ],
      "name": "removeMinter",
      "outputs": [
        {
          "name": "",
          "type": "bool"
        }
      ],
      "payable": false,
      "stateMutability": "nonpayable",
      "type": "function"
    },
    {
      "constant": false,
      "inputs": [
        {
          "name": "account",
          "type": "address"
        }
      ],
      "name": "removePauser",
      "outputs": [
        {
          "name": "",
          "type": "bool"
        }
      ],
      "payable": false,
      "stateMutability": "nonpayable",
      "type": "function"
    }
  ],
  "bytecode": "0x60806040526a01a784379d99db42000000600b553480156200002057600080fd5b50604080518082018252601581527f486564657261204d696e7461626c6520546f6b656e000000000000000000000060208083019182528351808501909452600484527f544b4e41000000000000000000000000000000000000000000000000000000009084015281519192916012916200009f91600391906200053b565b508151620000b59060049060208501906200053b565b506005805460ff191660ff9290921691909117905550620000e190503364010000000062000189810204565b6007805460ff19169055620000ff33640100000000620001db810204565b60098054600160a060020a031916331790819055604051600160a060020a0391909116906000907f8be0079c531659141344cd1fd0a4f28419497f9722a3daafe3b4186f6b6457e0908290a36200018333620001636401000000006200022d810204565b60ff16600a0a620f42400262000237640100000000026401000000009004565b620005dd565b620001a46006826401000000006200214b6200035882021704565b604051600160a060020a038216907f6719d08c1888103bea251a4ed56406bd0c3e69723c8a1686e017e7bbe159b6f890600090a250565b620001f66008826401000000006200214b6200035882021704565b604051600160a060020a038216907f6ae172837ea30b801fbfcdd4108aa1d5bf8ff775444fd70256b44e6bf3dfc3f690600090a250565b60055460ff165b90565b600160a060020a0382161515620002af57604080517f08c379a000000000000000000000000000000000000000000000000000000000815260206004820152601f60248201527f45524332303a206d696e7420746f20746865207a65726f206164647265737300604482015290519081900360640190fd5b600254620002cc908264010000000062001b47620003ff82021704565b600255600160a060020a03821660009081526020819052604090205462000302908264010000000062001b47620003ff82021704565b600160a060020a0383166000818152602081815260408083209490945583518581529351929391927fddf252ad1be2c89b69c2b068fc378daa952ba7f163c4a11628f55a4df523b3ef9281900390910190a35050565b6200036d82826401000000006200047b810204565b15620003da57604080517f08c379a000000000000000000000000000000000000000000000000000000000815260206004820152601f60248201527f526f6c65733a206163636f756e7420616c72656164792068617320726f6c6500604482015290519081900360640190fd5b600160a060020a0316600090815260209190915260409020805460ff19166001179055565b6000828201838110156200047457604080517f08c379a000000000000000000000000000000000000000000000000000000000815260206004820152601b60248201527f536166654d6174683a206164646974696f6e206f766572666c6f770000000000604482015290519081900360640190fd5b9392505050565b6000600160a060020a03821615156200051b57604080517f08c379a000000000000000000000000000000000000000000000000000000000815260206004820152602260248201527f526f6c65733a206163636f756e7420697320746865207a65726f20616464726560448201527f7373000000000000000000000000000000000000000000000000000000000000606482015290519081900360840190fd5b50600160a060020a03166000908152602091909152604090205460ff1690565b828054600181600116156101000203166002900490600052602060002090601f016020900481019282601f106200057e57805160ff1916838001178555620005ae565b82800160010185558215620005ae579182015b82811115620005ae57825182559160200191906001019062000591565b50620005bc929150620005c0565b5090565b6200023491905b80821115620005bc5760008155600101620005c7565b61227b80620005ed6000396000f3fe6080604052600436106101a5577c0100000000000000000000000000000000000000000000000000000000600035046306fdde0381146101aa578063095ea7b314610234578063153a1f3e1461028157806318160ddd146103b557806323b872dd146103dc5780633092afd51461041f578063313ce56714610452578063395093511461047d5780633f4ba83a146104b657806340c10f19146104cd57806342966c681461050657806346fbf68e146105305780635c975abb146105635780636b2c0f55146105785780636ef8d66d146105ab57806370a08231146105c0578063715018a6146105f357806379cc679014610608578063806c3ca91461064157806382dc1ec41461067c5780638456cb59146106af57806388ee39cc146106c45780638da5cb5b146106ff5780638f32d59b1461073057806395d89b4114610745578063983b2d561461075a578063986502751461078d578063996517cf146107a2578063a457c2d7146107b7578063a8ca97a0146107f0578063a9059cbb14610823578063aa271e1a1461085c578063dd62ed3e1461088f578063f2fde38b146108ca575b600080fd5b3480156101b657600080fd5b506101bf6108fd565b6040805160208082528351818301528351919283929083019185019080838360005b838110156101f95781810151838201526020016101e1565b50505050905090810190601f1680156102265780820380516001836020036101000a031916815260200191505b509250505060405180910390f35b34801561024057600080fd5b5061026d6004803603604081101561025757600080fd5b50600160a060020a038135169060200135610993565b604080519115158252519081900360200190f35b34801561028d57600080fd5b5061026d600480360360408110156102a457600080fd5b8101906020810181356401000000008111156102bf57600080fd5b8201836020820111156102d157600080fd5b803590602001918460208302840111640100000000831117156102f357600080fd5b919080806020026020016040519081016040528093929190818152602001838360200280828437600092019190915250929594936020810193503591505064010000000081111561034357600080fd5b82018360208201111561035557600080fd5b8035906020019184602083028401116401000000008311171561037757600080fd5b9190808060200260200160405190810160405280939291908181526020018383602002808284376000920191909152509295506109f0945050505050565b3480156103c157600080fd5b506103ca610a93565b60408051918252519081900360200190f35b3480156103e857600080fd5b5061026d600480360360608110156103ff57600080fd5b50600160a060020a03813581169160208101359091169060400135610a99565b34801561042b57600080fd5b5061026d6004803603602081101561044257600080fd5b5035600160a060020a0316610bd3565b34801561045e57600080fd5b50610467610c6b565b6040805160ff9092168252519081900360200190f35b34801561048957600080fd5b5061026d600480360360408110156104a057600080fd5b50600160a060020a038135169060200135610c74565b3480156104c257600080fd5b506104cb610cca565b005b3480156104d957600080fd5b5061026d600480360360408110156104f057600080fd5b50600160a060020a038135169060200135610dc6565b34801561051257600080fd5b506104cb6004803603602081101561052957600080fd5b5035610ed6565b34801561053c57600080fd5b5061026d6004803603602081101561055357600080fd5b5035600160a060020a0316610ee3565b34801561056f57600080fd5b5061026d610efc565b34801561058457600080fd5b5061026d6004803603602081101561059b57600080fd5b5035600160a060020a0316610f05565b3480156105b757600080fd5b506104cb610f71565b3480156105cc57600080fd5b506103ca600480360360208110156105e357600080fd5b5035600160a060020a0316610f7c565b3480156105ff57600080fd5b506104cb610f97565b34801561061457600080fd5b506104cb6004803603604081101561062b57600080fd5b50600160a060020a03813516906020013561103a565b34801561064d57600080fd5b5061026d6004803603604081101561066457600080fd5b50600160a060020a0381351690602001351515611048565b34801561068857600080fd5b506104cb6004803603602081101561069f57600080fd5b5035600160a060020a03166110c2565b3480156106bb57600080fd5b506104cb61112c565b3480156106d057600080fd5b5061026d600480360360408110156106e757600080fd5b50600160a060020a0381358116916020013516611218565b34801561070b57600080fd5b5061071461139a565b60408051600160a060020a039092168252519081900360200190f35b34801561073c57600080fd5b5061026d6113a9565b34801561075157600080fd5b506101bf6113ba565b34801561076657600080fd5b506104cb6004803603602081101561077d57600080fd5b5035600160a060020a031661141b565b34801561079957600080fd5b506104cb6114a9565b3480156107ae57600080fd5b506103ca6114b2565b3480156107c357600080fd5b5061026d600480360360408110156107da57600080fd5b50600160a060020a0381351690602001356114b8565b3480156107fc57600080fd5b5061026d6004803603602081101561081357600080fd5b5035600160a060020a031661150e565b34801561082f57600080fd5b5061026d6004803603604081101561084657600080fd5b50600160a060020a038135169060200135611592565b34801561086857600080fd5b5061026d6004803603602081101561087f57600080fd5b5035600160a060020a0316611692565b34801561089b57600080fd5b506103ca600480360360408110156108b257600080fd5b50600160a060020a03813581169160200135166116a5565b3480156108d657600080fd5b506104cb600480360360208110156108ed57600080fd5b5035600160a060020a03166116d0565b60038054604080516020601f60026000196101006001881615020190951694909404938401819004810282018101909252828152606093909290918301828280156109895780601f1061095e57610100808354040283529160200191610989565b820191906000526020600020905b81548152906001019060200180831161096c57829003601f168201915b5050505050905090565b60075460009060ff16156109df576040805160e560020a62461bcd0281526020600482015260106024820152600080516020612230833981519152604482015290519081900360640190fd5b6109e98383611725565b9392505050565b60075460009060ff1615610a3c576040805160e560020a62461bcd0281526020600482015260106024820152600080516020612230833981519152604482015290519081900360640190fd5b60005b8351811015610a8957610a81338583815181101515610a5a57fe5b906020019060200201518584815181101515610a7257fe5b90602001906020020151611732565b600101610a3f565b5060019392505050565b60025490565b60075460009060ff1615610ae5576040805160e560020a62461bcd0281526020600482015260106024820152600080516020612230833981519152604482015290519081900360640190fd5b610af0848484611732565b610b148433610b0f85610b0389336116a5565b9063ffffffff6118f616565b611956565b600160a060020a0383166000908152600a602052604090205460ff1615610a895782600160a060020a0316633b66d02b85846040518363ffffffff167c01000000000000000000000000000000000000000000000000000000000281526004018083600160a060020a0316600160a060020a0316815260200182815260200192505050600060405180830381600087803b158015610bb157600080fd5b505af1158015610bc5573d6000803e3d6000fd5b505050505060019392505050565b6000610bde33611692565b1515610c5a576040805160e560020a62461bcd02815260206004820152603060248201527f4d696e746572526f6c653a2063616c6c657220646f6573206e6f74206861766560448201527f20746865204d696e74657220726f6c6500000000000000000000000000000000606482015290519081900360840190fd5b610c6382611ac3565b506001919050565b60055460ff1690565b60075460009060ff1615610cc0576040805160e560020a62461bcd0281526020600482015260106024820152600080516020612230833981519152604482015290519081900360640190fd5b6109e98383611b0b565b610cd333610ee3565b1515610d2b576040805160e560020a62461bcd02815260206004820152603060248201526000805160206121f083398151915260448201526000805160206121d0833981519152606482015290519081900360840190fd5b60075460ff161515610d87576040805160e560020a62461bcd02815260206004820152601460248201527f5061757361626c653a206e6f7420706175736564000000000000000000000000604482015290519081900360640190fd5b6007805460ff191690556040805133815290517f5db9ee0a495bf2e6ff9c91a7834c1ba4fdd244a5e8aa4e537bd38aeae4b073aa9181900360200190a1565b6000610dd133611692565b1515610e4d576040805160e560020a62461bcd02815260206004820152603060248201527f4d696e746572526f6c653a2063616c6c657220646f6573206e6f74206861766560448201527f20746865204d696e74657220726f6c6500000000000000000000000000000000606482015290519081900360840190fd5b610e556114b2565b610e6d83610e61610a93565b9063ffffffff611b4716565b1115610ec3576040805160e560020a62461bcd02815260206004820152601360248201527f4d696e74206c696d697420657863656564656400000000000000000000000000604482015290519081900360640190fd5b610ecd8383611ba4565b50600192915050565b610ee03382611c99565b50565b6000610ef660068363ffffffff611db316565b92915050565b60075460ff1690565b6000610f1033610ee3565b1515610f68576040805160e560020a62461bcd02815260206004820152603060248201526000805160206121f083398151915260448201526000805160206121d0833981519152606482015290519081900360840190fd5b610c6382611e5b565b610f7a33611e5b565b565b600160a060020a031660009081526020819052604090205490565b610f9f6113a9565b1515610fe3576040805160e560020a62461bcd0281526020600482018190526024820152600080516020612210833981519152604482015290519081900360640190fd5b600954604051600091600160a060020a0316907f8be0079c531659141344cd1fd0a4f28419497f9722a3daafe3b4186f6b6457e0908390a36009805473ffffffffffffffffffffffffffffffffffffffff19169055565b6110448282611ea3565b5050565b60006110526113a9565b1515611096576040805160e560020a62461bcd0281526020600482018190526024820152600080516020612210833981519152604482015290519081900360640190fd5b600160a060020a03929092166000908152600a60205260409020805460ff191691151591909117905590565b6110cb33610ee3565b1515611123576040805160e560020a62461bcd02815260206004820152603060248201526000805160206121f083398151915260448201526000805160206121d0833981519152606482015290519081900360840190fd5b610ee081611ee8565b61113533610ee3565b151561118d576040805160e560020a62461bcd02815260206004820152603060248201526000805160206121f083398151915260448201526000805160206121d0833981519152606482015290519081900360840190fd5b60075460ff16156111d6576040805160e560020a62461bcd0281526020600482015260106024820152600080516020612230833981519152604482015290519081900360640190fd5b6007805460ff191660011790556040805133815290517f62e78cea01bee320cd4e420270b5ea74000d11b0c9f74754ebdbfc544b05a2589181900360200190a1565b60006112226113a9565b1515611266576040805160e560020a62461bcd0281526020600482018190526024820152600080516020612210833981519152604482015290519081900360640190fd5b604080517f70a082310000000000000000000000000000000000000000000000000000000081523060048201529051600091600160a060020a038616916370a0823191602480820192602092909190829003018186803b1580156112c957600080fd5b505afa1580156112dd573d6000803e3d6000fd5b505050506040513d60208110156112f357600080fd5b5051604080517fa9059cbb000000000000000000000000000000000000000000000000000000008152600160a060020a0386811660048301526024820184905291519293509086169163a9059cbb916044808201926020929091908290030181600087803b15801561136457600080fd5b505af1158015611378573d6000803e3d6000fd5b505050506040513d602081101561138e57600080fd5b50600195945050505050565b600954600160a060020a031690565b600954600160a060020a0316331490565b60048054604080516020601f60026000196101006001881615020190951694909404938401819004810282018101909252828152606093909290918301828280156109895780601f1061095e57610100808354040283529160200191610989565b61142433611692565b15156114a0576040805160e560020a62461bcd02815260206004820152603060248201527f4d696e746572526f6c653a2063616c6c657220646f6573206e6f74206861766560448201527f20746865204d696e74657220726f6c6500000000000000000000000000000000606482015290519081900360840190fd5b610ee081611f30565b610f7a33611ac3565b600b5490565b60075460009060ff1615611504576040805160e560020a62461bcd0281526020600482015260106024820152600080516020612230833981519152604482015290519081900360640190fd5b6109e98383611f78565b60006115186113a9565b151561155c576040805160e560020a62461bcd0281526020600482018190526024820152600080516020612210833981519152604482015290519081900360640190fd5b604051600160a060020a03831690303180156108fc02916000818181858888f19350505050158015610ecd573d6000803e3d6000fd5b60075460009060ff16156115de576040805160e560020a62461bcd0281526020600482015260106024820152600080516020612230833981519152604482015290519081900360640190fd5b6115e9338484611732565b600160a060020a0383166000908152600a602052604090205460ff1615610ecd57604080517f3b66d02b000000000000000000000000000000000000000000000000000000008152336004820152602481018490529051600160a060020a03851691633b66d02b91604480830192600092919082900301818387803b15801561167157600080fd5b505af1158015611685573d6000803e3d6000fd5b5050505050600192915050565b6000610ef660088363ffffffff611db316565b600160a060020a03918216600090815260016020908152604080832093909416825291909152205490565b6116d86113a9565b151561171c576040805160e560020a62461bcd0281526020600482018190526024820152600080516020612210833981519152604482015290519081900360640190fd5b610ee081611fb4565b6000610ecd338484611956565b600160a060020a03831615156117b8576040805160e560020a62461bcd02815260206004820152602560248201527f45524332303a207472616e736665722066726f6d20746865207a65726f20616460448201527f6472657373000000000000000000000000000000000000000000000000000000606482015290519081900360840190fd5b600160a060020a038216151561183e576040805160e560020a62461bcd02815260206004820152602360248201527f45524332303a207472616e7366657220746f20746865207a65726f206164647260448201527f6573730000000000000000000000000000000000000000000000000000000000606482015290519081900360840190fd5b600160a060020a038316600090815260208190526040902054611867908263ffffffff6118f616565b600160a060020a03808516600090815260208190526040808220939093559084168152205461189c908263ffffffff611b4716565b600160a060020a038084166000818152602081815260409182902094909455805185815290519193928716927fddf252ad1be2c89b69c2b068fc378daa952ba7f163c4a11628f55a4df523b3ef92918290030190a3505050565b600082821115611950576040805160e560020a62461bcd02815260206004820152601e60248201527f536166654d6174683a207375627472616374696f6e206f766572666c6f770000604482015290519081900360640190fd5b50900390565b600160a060020a03831615156119db576040805160e560020a62461bcd028152602060048201526024808201527f45524332303a20617070726f76652066726f6d20746865207a65726f2061646460448201527f7265737300000000000000000000000000000000000000000000000000000000606482015290519081900360840190fd5b600160a060020a0382161515611a61576040805160e560020a62461bcd02815260206004820152602260248201527f45524332303a20617070726f766520746f20746865207a65726f20616464726560448201527f7373000000000000000000000000000000000000000000000000000000000000606482015290519081900360840190fd5b600160a060020a03808416600081815260016020908152604080832094871680845294825291829020859055815185815291517f8c5be1e5ebec7d5bd14f71427d1e84f3dd0314c0f7b2291e5b200ac8c7c3b9259281900390910190a3505050565b611ad460088263ffffffff6120a316565b604051600160a060020a038216907fe94479a9f7e1952cc78f2d6baab678adc1b772d936c6583def489e524cb6669290600090a250565b336000818152600160209081526040808320600160a060020a03871684529091528120549091610ecd918590610b0f908663ffffffff611b4716565b6000828201838110156109e9576040805160e560020a62461bcd02815260206004820152601b60248201527f536166654d6174683a206164646974696f6e206f766572666c6f770000000000604482015290519081900360640190fd5b600160a060020a0382161515611c04576040805160e560020a62461bcd02815260206004820152601f60248201527f45524332303a206d696e7420746f20746865207a65726f206164647265737300604482015290519081900360640190fd5b600254611c17908263ffffffff611b4716565b600255600160a060020a038216600090815260208190526040902054611c43908263ffffffff611b4716565b600160a060020a0383166000818152602081815260408083209490945583518581529351929391927fddf252ad1be2c89b69c2b068fc378daa952ba7f163c4a11628f55a4df523b3ef9281900390910190a35050565b600160a060020a0382161515611d1f576040805160e560020a62461bcd02815260206004820152602160248201527f45524332303a206275726e2066726f6d20746865207a65726f2061646472657360448201527f7300000000000000000000000000000000000000000000000000000000000000606482015290519081900360840190fd5b600254611d32908263ffffffff6118f616565b600255600160a060020a038216600090815260208190526040902054611d5e908263ffffffff6118f616565b600160a060020a038316600081815260208181526040808320949094558351858152935191937fddf252ad1be2c89b69c2b068fc378daa952ba7f163c4a11628f55a4df523b3ef929081900390910190a35050565b6000600160a060020a0382161515611e3b576040805160e560020a62461bcd02815260206004820152602260248201527f526f6c65733a206163636f756e7420697320746865207a65726f20616464726560448201527f7373000000000000000000000000000000000000000000000000000000000000606482015290519081900360840190fd5b50600160a060020a03166000908152602091909152604090205460ff1690565b611e6c60068263ffffffff6120a316565b604051600160a060020a038216907fcd265ebaf09df2871cc7bd4133404a235ba12eff2041bb89d9c714a2621c7c7e90600090a250565b611ead8282611c99565b600160a060020a038216600090815260016020908152604080832033808552925290912054611044918491610b0f908563ffffffff6118f616565b611ef960068263ffffffff61214b16565b604051600160a060020a038216907f6719d08c1888103bea251a4ed56406bd0c3e69723c8a1686e017e7bbe159b6f890600090a250565b611f4160088263ffffffff61214b16565b604051600160a060020a038216907f6ae172837ea30b801fbfcdd4108aa1d5bf8ff775444fd70256b44e6bf3dfc3f690600090a250565b336000818152600160209081526040808320600160a060020a03871684529091528120549091610ecd918590610b0f908663ffffffff6118f616565b600160a060020a038116151561203a576040805160e560020a62461bcd02815260206004820152602660248201527f4f776e61626c653a206e6577206f776e657220697320746865207a65726f206160448201527f6464726573730000000000000000000000000000000000000000000000000000606482015290519081900360840190fd5b600954604051600160a060020a038084169216907f8be0079c531659141344cd1fd0a4f28419497f9722a3daafe3b4186f6b6457e090600090a36009805473ffffffffffffffffffffffffffffffffffffffff1916600160a060020a0392909216919091179055565b6120ad8282611db3565b1515612129576040805160e560020a62461bcd02815260206004820152602160248201527f526f6c65733a206163636f756e7420646f6573206e6f74206861766520726f6c60448201527f6500000000000000000000000000000000000000000000000000000000000000606482015290519081900360840190fd5b600160a060020a0316600090815260209190915260409020805460ff19169055565b6121558282611db3565b156121aa576040805160e560020a62461bcd02815260206004820152601f60248201527f526f6c65733a206163636f756e7420616c72656164792068617320726f6c6500604482015290519081900360640190fd5b600160a060020a0316600090815260209190915260409020805460ff1916600117905556fe207468652050617573657220726f6c6500000000000000000000000000000000506175736572526f6c653a2063616c6c657220646f6573206e6f7420686176654f776e61626c653a2063616c6c6572206973206e6f7420746865206f776e65725061757361626c653a2070617573656400000000000000000000000000000000a165627a7a7230582057041aecde73443bc5113d9428a672d1ea68b363fa7252f65a4fb9c13c7a4e180029",
  "source": "\npragma solidity ^0.5.0;\n\nimport \"../../3rdparty/openzeppelin-solidity/contracts/token/ERC20/ERC20.sol\";\nimport \"../../3rdparty/openzeppelin-solidity/contracts/token/ERC20/ERC20Detailed.sol\";\nimport \"../../3rdparty/openzeppelin-solidity/contracts/token/ERC20/ERC20Pausable.sol\";\nimport \"../../3rdparty/openzeppelin-solidity/contracts/token/ERC20/ERC20Mintable.sol\";\nimport \"../../3rdparty/openzeppelin-solidity/contracts/token/ERC20/ERC20Burnable.sol\";\nimport \"../../3rdparty/openzeppelin-solidity/contracts/ownership/Ownable.sol\";\n\ncontract TokenReceiver {\n    function tokenFallback( address from, uint256 value ) public;\n}\n\n\ncontract TokenMintable is ERC20, ERC20Detailed, ERC20Pausable, ERC20Mintable, ERC20Burnable, Ownable {\n\n    mapping(address=>bool) _trusted;\n    uint256 _mintLimit = 2000000 * 10**18;\n    function mintLimit() public view returns(uint256){\n        return _mintLimit;\n    }\n    \n    /**\n     * @dev Constructor that gives msg.sender all of existing tokens, pauser added.\n     */\n    constructor () public ERC20Detailed(\"Hedera Mintable Token\", \"TKNA\", 18) {\n        _mint(msg.sender, 1000000 * (10 ** uint256(decimals())));\n    }\n\n\n    function reclaimHederaBars(address payable _to) public onlyOwner returns(bool) {\n        _to.transfer(address(this).balance);\n        return true;\n    }\n\n    function reclaimToken(ERC20 token, address _to) public onlyOwner returns(bool) {\n        uint256 balance = token.balanceOf(address(this));\n        token.transfer(_to, balance);\n        return true;\n    }\n\n    /**\n     * @dev set trusted certificate address, containing tokenFallback function implementatios\n     *\n     * Requirements:\n     *\n     * - `recipient` cannot be the zero address.\n     * - the caller must have a balance of at least `amount`.\n     */\n\n    function setTrustedAddress(address trusted, bool is_trusted) public onlyOwner returns(bool){\n        _trusted[trusted] = is_trusted;\n    }\n\n\n    /**\n     * @dev See `IERC20.transfer`.\n     *\n     * Requirements:\n     *\n     * - `recipient` cannot be the zero address.\n     * - the caller must have a balance of at least `amount`.\n     */\n    function transfer(address recipient, uint256 amount) public  whenNotPaused returns (bool) {\n        _transfer(msg.sender, recipient, amount);\n        if( _trusted[recipient] ){\n                TokenReceiver(recipient).tokenFallback(msg.sender, amount);\n        }\n        return true;\n    }\n\n    /**\n     * @dev See `IERC20.transferFrom`.\n     *\n     * Emits an `Approval` event indicating the updated allowance. This is not\n     * required by the EIP. See the note at the beginning of `ERC20`;\n     *\n     * Requirements:\n     * - `sender` and `recipient` cannot be the zero address.\n     * - `sender` must have a balance of at least `value`.\n     * - the caller must have allowance for `sender`'s tokens of at least\n     * `amount`.\n     */\n    function transferFrom(address sender, address recipient, uint256 amount) public whenNotPaused returns (bool) {\n        _transfer(sender, recipient, amount);\n        _approve(sender, msg.sender, allowance(sender, msg.sender).sub(amount));\n        if( _trusted[recipient] ){\n            TokenReceiver(recipient).tokenFallback(sender, amount);\n        }\n        return true;\n    }\n\n   /**\n     * @dev Bulk transfer function\n     *\n     * Makes multiple transfers to receipients. tokenFallback function isn't called for trusted smart contracts.\n     */\n    function bulkTransfer(address[]  memory recipients, uint256[] memory amounts) public whenNotPaused returns(bool){\n        for( uint256 i = 0; i < recipients.length; i++ ){\n            _transfer(msg.sender, recipients[i], amounts[i]);\n        }\n        return true;\n    }\n\n    /**\n     * @dev See `ERC20._mint`.\n     *\n     * Requirements:\n     *\n     * - the caller must have the `MinterRole`. totalSupply + amount must be lower than mintLimit. \n     */\n    function mint(address account, uint256 amount) public onlyMinter returns (bool) {\n        require(totalSupply().add(amount) <= mintLimit(), \"Mint limit exceeded\");\n        _mint(account, amount);\n        return true;\n    }\n\n    function removeMinter(address account) public onlyMinter returns (bool){\n        _removeMinter(account);\n        return true;\n    }\n    function removePauser(address account) public onlyPauser returns (bool){\n        _removePauser(account);\n        return true;\n    }\n\n}",
  "sourcePath": "/home/delerex/DelerexGit/Hedera/hederalaunch/contracts/TokenMintable.sol",
  "compiler": {
    "name": "solc",
    "version": "0.5.1+commit.c8a2cb62.Emscripten.clang"
  },
  "schemaVersion": "3.0.9",
  "updatedAt": "2019-07-11T14:52:11.909Z",
  "devdoc": {
    "methods": {
      "allowance(address,address)": {
        "details": "See `IERC20.allowance`."
      },
      "balanceOf(address)": {
        "details": "See `IERC20.balanceOf`."
      },
      "bulkTransfer(address[],uint256[])": {
        "details": "Bulk transfer function     * Makes multiple transfers to receipients. tokenFallback function isn't called for trusted smart contracts."
      },
      "burn(uint256)": {
        "details": "Destroys `amount` tokens from the caller.     * See `ERC20._burn`."
      },
      "burnFrom(address,uint256)": {
        "details": "See `ERC20._burnFrom`."
      },
      "constructor": {
        "details": "Constructor that gives msg.sender all of existing tokens, pauser added."
      },
      "decimals()": {
        "details": "Returns the number of decimals used to get its user representation. For example, if `decimals` equals `2`, a balance of `505` tokens should be displayed to a user as `5,05` (`505 / 10 ** 2`).     * Tokens usually opt for a value of 18, imitating the relationship between Ether and Wei.     * > Note that this information is only used for _display_ purposes: it in no way affects any of the arithmetic of the contract, including `IERC20.balanceOf` and `IERC20.transfer`."
      },
      "isOwner()": {
        "details": "Returns true if the caller is the current owner."
      },
      "mint(address,uint256)": {
        "details": "See `ERC20._mint`.     * Requirements:     * - the caller must have the `MinterRole`. totalSupply + amount must be lower than mintLimit. "
      },
      "name()": {
        "details": "Returns the name of the token."
      },
      "owner()": {
        "details": "Returns the address of the current owner."
      },
      "pause()": {
        "details": "Called by a pauser to pause, triggers stopped state."
      },
      "paused()": {
        "details": "Returns true if the contract is paused, and false otherwise."
      },
      "renounceOwnership()": {
        "details": "Leaves the contract without owner. It will not be possible to call `onlyOwner` functions anymore. Can only be called by the current owner.     * > Note: Renouncing ownership will leave the contract without an owner, thereby removing any functionality that is only available to the owner."
      },
      "setTrustedAddress(address,bool)": {
        "details": "set trusted certificate address, containing tokenFallback function implementatios     * Requirements:     * - `recipient` cannot be the zero address. - the caller must have a balance of at least `amount`."
      },
      "symbol()": {
        "details": "Returns the symbol of the token, usually a shorter version of the name."
      },
      "totalSupply()": {
        "details": "See `IERC20.totalSupply`."
      },
      "transfer(address,uint256)": {
        "details": "See `IERC20.transfer`.     * Requirements:     * - `recipient` cannot be the zero address. - the caller must have a balance of at least `amount`."
      },
      "transferFrom(address,address,uint256)": {
        "details": "See `IERC20.transferFrom`.     * Emits an `Approval` event indicating the updated allowance. This is not required by the EIP. See the note at the beginning of `ERC20`;     * Requirements: - `sender` and `recipient` cannot be the zero address. - `sender` must have a balance of at least `value`. - the caller must have allowance for `sender`'s tokens of at least `amount`."
      },
      "transferOwnership(address)": {
        "details": "Transfers ownership of the contract to a new account (`newOwner`). Can only be called by the current owner."
      },
      "unpause()": {
        "details": "Called by a pauser to unpause, returns to normal state."
      }
    }
  },
  "userdoc": {
    "methods": {}
  }
}